:100000006F10E06100000000F2010000F401000048
:1000100000000000000000000000000000000000E0
:1000200000000000000000000000000000000000D0
:100030001C160000000000001C160000000000005C
:100040001C1600001C1600001C1600001C160000E8
:100050001C1600001C1600001C1600001C160000D8
:100060001C1600001C1600001C1600001C160000C8
:100070001C1600001C1600001C1600001C160000B8
:100080001C1600001C1600001C1600001C160000A8
:100090001C1600001C1600001C16000000000000CA
:1000A000511126C022C206C4828282441244A24058
:1000B000310182802A86014593F6150091C232955E
:1000C00085810606F5F9828000000000634E050276
:1000D00063C305042E86AA857D5515C285466378BF
:1000E000B6006356C00006068606E36CB6FE014500
:1000F00063E4C500918D558D85820582F5FA828075
:100100008682C93F2E8582823305A04063D70500D1
:10011000B305B040C1B7B305B0408682653F330533
:10012000A0408282868263C70500634905005D376F
:100130002E858282B305B040E35B05FE3305A04007
:10014000513F3305B040828200003D432A876373EC
:10015000C3029377F700BDEFADE5937606FF3D8AC6
:10016000BA960CC34CC30CC74CC74107E36BD7FE10
:1001700011E28280B306C3408A0697020000969679
:100180006780A6002307B700A306B7002306B700C1
:10019000A305B7002305B700A304B7002304B700E5
:1001A000A303B7002303B700A302B7002302B700DD
:1001B000A301B7002301B700A300B7002300B700D5
:1001C000828093F5F50F93968500D58D9396050162
:1001D000D58D61B793962700970200009696868288
:1001E000E78086FA9680C1171D8F3E96E374C3F8A8
:1001F000A5B701A0B707EFBE37E700E09387070870
:100200003CC701A0EFF2DFE951118545414502C02D
:1002100002C202C4EF104074930700047C80E147DF
:100220008A853EC4371501408D473EC2EF102064D9
:10023000371501408A859147130505807C8002C4EB
:10024000EF10E062310195B5EFF29FE5AA841565E4
:10025000130555552E84EF10406913F5F40FEF1078
:1002600040692285EF106069EF10A069EF10406AC5
:100270002DBDEFF2FFE231118545056502C002C2D6
:1002800002C402C623180100EF10006DB7C70401B5
:100290003EC08567938707803EC2B7070002850787
:1002A0003EC4A1478A853EC6373501409D47FC8044
:1002B000EF10406E854537350140EF10C070510199
:1002C000EDB3EFF2FFDD211185451305002002C0DB
:1002D00002C202C402C602C802CAEF10E0670145AA
:1002E00037240140EF10006613050440EF10203E54
:1002F000B7070E00130504408A853EC68547230ACA
:10030000F10002C002C202C402C8EF10A03E1305F1
:100310000440B7050002EF10405413050440854522
:10032000EF10204213050440B7240140EF10604253
:10033000138404402285EF1060426DFD1385044054
:1003400037240140EF100042130404402285EF10CF
:1003500000426DFD610191BBEFF29FD4C1641304B3
:10036000D002FD14894537350140EF10A0677DD9D3
:100370007D14A685373501401374F40FEF104066E5
:1003800075F0EF1000581304D0028945373501404D
:10039000EF1040657DD97D148145373501401374D8
:1003A000F40FEF10E06375F0EF10A055FDB9EFF218
:1003B0003FCF130141F9930780253EC602C402C80E
:1003C00002CE02CC02CAEF10C0536545EF10E065C3
:1003D0004247954763E7E716931727000967130716
:1003E00087A6BA979C438287F24793868700D247B5
:1003F0001397060136CE13948700E2473E94930785
:10040000E00F3A9463F4D70095473EC8A24713061D
:10041000C00481451387170093373701B307F040B5
:10042000F98F0810BE843EC40D3393972400F81052
:10043000BA9723AA87FA1C103EC0824761448443BE
:100440009397840063CB070EC1679387078022C20E
:1004500086043E84894537350140EF10A0587DD988
:10046000A2871244BE85373501407D141374F40F02
:10047000EF10005771F48247F81091073EC0E39ED9
:10048000E7FAB247FD173EC69DFF1301C10631B919
:10049000E247138787FFD2473ACC13948700F2478D
:1004A0003A94C2073E943DF391473EC885B7E24770
:1004B0009306E00F13868700D24732CC139787004C
:1004C000F2473297139407013A94E3F1C6F48D474B
:1004D0003EC82DBFD247138787FFF2473ACA13940D
:1004E0000701E2473E94931787003E9405F389473E
:1004F0003EC829BFD2477247E246A107131407013D
:1005000013B7F70F3ECA3694A207134717003AC82D
:100510003E94EDBDF247E246138787FFD2473ACEBD
:10052000139487003694B337E00042073A94424769
:10053000B307F040F98F3EC8D1BDC167938707FC70
:1005400039B7014402C802CE02CC02CAC1B5EFF2EB
:100550003FB5130141FA930720033EC402C6EF10D2
:10056000403A13057012EF10404CE1473EC202C002
:10057000B724014089460546814513850440EF10A4
:100580000021854513850440EF10E01E13840440CC
:1005900089452285EF10C02B65DD13850440EF10DF
:1005A000A02A824705893E959247131715003AC045
:1005B000FD173EC2E1F3B2471306C004814513871D
:1005C000170093373701B307F040F98F08083E84CE
:1005D0003EC6A53EF80893172400BA97024723AAFF
:1005E000E7FA1C083EC29247614484439397840013
:1005F00063C40704C167938707808604894537353C
:1006000001403EC0EF10003E82476DD97D14BE858B
:10061000373501401374F40FEF10803C61F89247B6
:10062000F80891073EC2E310F7FCA247FD173EC44D
:100630009DF71301C10595BCC167938707FC75BF82
:10064000EFF21FA61D71930720033EC8EF10602B29
:1006500013052012EF10603D5C083EC43EC602C088
:10066000B72401408D473EC2894605468145138522
:100670000440EF10C011854513850440EF10A00F12
:100680001384044089452285EF10801C65DD1385A5
:100690000440EF10601B82470589A2073EC001C5D8
:1006A00093E7F70F3EC09247FD173EC2D5FF89463C
:1006B0000546814513850440EF10600D854513857F
:1006C0000440EF10400B1384044089452285EF104D
:1006D000201865DD13850440EF1000170589B24727
:1006E00035C50247910723AEE7FE3EC69810E39B4F
:1006F000E7F6A247614484439397840063C30704E9
:10070000C167938707803EC086048945373501401D
:10071000EF10402D7DD982457D143735014013748B
:10072000F40FEF10E02B69F8A247981091073EC430
:10073000E311F7FCC247FD173EC8E39907F02561B6
:10074000ADB2C167938707FC3EC07DBF23A0070001
:1007500091073EC69810E397E7F061BFEFF25F9410
:10076000130141F9930780253EC602C402C802CE98
:1007700002CC02CAEF10E0186545EF10002B42478B
:10078000954763E9E716931727000967130707A83A
:10079000BA979C438287F24793868700D247139784
:1007A000060136CE13948700E2473E949307E00F8C
:1007B0003A9463F4D70095473EC8A24713871700C1
:1007C0003AC4C947B384E74063F4E700C94402C4AC
:1007D0001306C004814508108D3A93972400F81041
:1007E000BA9723AA87FA1C103EC08247614484430B
:1007F0009397840063CC070EC1679387078022C25A
:1008000086043E84894537350140EF10A01D7DD90F
:10081000A2871244BE85373501407D141374F40F4E
:10082000EF10001C71F48247F81091073EC0E39E60
:10083000E7FAB247FD173EC695FF1301C1066FF0F8
:10084000DF86E247138787FFD2473ACC13948700AD
:10085000F2473A94C2073E942DF391473EC8B1BF88
:10086000E2479306E00F13868700D24732CC1397F6
:100870008700F2473297139407013A94E3FFC6F2D8
:100880008D473EC81DBFD247138787FFF2473ACA3C
:1008900013940701E2473E94931787003E9411FF9B
:1008A00089473EC819BFD2477247E246A1071314D1
:1008B000070113B7F70F3ECA3694A2071347170074
:1008C0003AC83E94DDBDF247E246138787FFD24720
:1008D0003ACE139487003694B337E00042073A9437
:1008E0004247B307F040F98F3EC8C1BDC167938747
:1008F00007FC31B7014402C802CE02CC02CA75BD62
:10090000EFF20FFA130181F8930760093ED2B7A7FF
:10091000A3009384574AB96737A5A00093878793AC
:100920001304251A3ECC26D4EF00B07D13054006F3
:10093000EF10A00F7C1037D703003ECE3ED09307B8
:10094000078B37D706003EC29307079C37270F0057
:100950003EC49307072C37F757EC3EC6B710870005
:100960009307A7803EC8938740803ECAA257F96488
:10097000938484453EC0E1438142924011A03EC031
:100980005247624593D507013373E40013D6C7007D
:1009900037D729001307C7E5BD893D8A7D8FB35539
:1009A000B54033D6C440334767008589098A13535D
:1009B00007014D8EA2453343E30013D7470042039E
:1009C0003D8B1353030133D7E54093D687009375CE
:1009D0008700135583003247BD8A85833345650000
:1009E0001375F50FBD8BB3D6D0403357F740918ABE
:1009F000935745003D8D558EC247D18D418B4D8F0C
:100A000033D7E7009D673D8993876799B3D7A740A0
:100A100006048602058B858BFD13C18FB3625700D8
:100A20000244E39E03F40257B41823205700110731
:100A30003AD0E391E6F43ED4F2476144844393977D
:100A4000840063C60704C167938707803EC286049B
:100A5000894537350140EF00F0787DD992457D1406
:100A6000373501401374F40FEF00907769F8F247BF
:100A7000B81891073ECEE391E7FC92570244FD1768
:100A80003ED2E39307EA130181076FF00FE2C167DB
:100A9000938707FC3EC265BFEFF28FE01301C1F9F7
:100AA0000545EF007068EF00B030EFF0AFF5EFF004
:100AB0004FFCEFF01F81930500201945EFF0CFF8B0
:100AC000EF00F072EFF05F89EF00B06313054006AE
:100AD000EF00B07520082D35EF00B0621305400619
:100AE000EF00B074930720033EC08144EF007061B3
:100AF0001305C012EF00707301473705FF004D4624
:100B0000C16539A823AAA6FAE38BC71A8A07D410AD
:100B1000938405F0B697090723AA97FA6304C702DE
:100B2000DC1093162700BE9693071700E1DCBE8603
:100B3000BA878A073687D410A180B69723AA97FA76
:100B4000E310C7FEA2869042614793178600E3C96F
:100B50000708C16793870780060689453735014036
:100B60003AC836C63EC432C2EF00D0671246A2472A
:100B7000B24642477DD1BE85373501403AC636C4BC
:100B8000EF00106632471246A2467D171377F70F23
:100B90004DFF9106DC10E398F6FA8247FD173EC040
:100BA000B1F7EF00105613054006EF001068EFF0A4
:100BB0001F80EF00105513054006EF0010679307E4
:100BC00020033EC08144EF00D0531305C012EF0054
:100BD000D0650147B705FF004D4639A823AAB6FAEC
:100BE000E383C70E8A07D410B7F40F00B69709073E
:100BF00023AA97FA6304C702DC1093162700BE9657
:100C000093071700E1DCBE86BA878A073687D410BF
:100C10009180B69723AA97FAE310C7FEA286904266
:100C200061479317860063C2077CC167938707807B
:100C3000060689453735014036C83AC63EC432C239
:100C4000EF00505A1246A2473247C2467DD1BE85B8
:100C50003735014036C63AC4EF0090582247124655
:100C6000B2467D171377F70F4DFF9106DC10E3981E
:100C7000D7FA8247FD173EC0B9F7EF009048130539
:100C80004006EF00905A930720033EC08144EF00D6
:100C900050471305C012EF00505981471305F00F5C
:100CA0004D46C16515A023AAA6FAE306C7009386A0
:100CB0002700BA878A07D810BA97938405F023AA29
:100CC00097FAB6876383C602D81093962700BA9620
:100CD00013871700E9D8BA868A07D810BA97A204F2
:100CE00023AA97FAB687E391C6FEA286904261478F
:100CF0009317860063C70772C1679387078006064C
:100D000089453735014036C83EC632C43AC2EF0085
:100D1000704D12472246B247C2467DD1BE85373557
:100D2000014036C6EF00D04B12472246B2467D172F
:100D30001377F70F55FF9106DC10E399D7FA824736
:100D4000FD173EC0A9F7EF00D03B13054006EF00AA
:100D5000D04DEFF0CFFFEF00D03A13054006EF0083
:100D6000D04C930720033EC08144EF009039130517
:100D70007012EF00904B8504A14763E79772C94753
:100D8000858F1306C004814522853EC2EFF0EFBB7C
:100D900013972400DC103E979247C1661386F6FF36
:100DA000232AC7FA8A07D810BA9723AAC7FAB7071F
:100DB000FF0026C23EDEA284944026C4E147B684EA
:100DC000C16613968400138706FC634406001387EC
:100DD000068086048945373501403EC83AC6EF0093
:100DE00070403247C2477DD5BA85373501403EC68F
:100DF000EF00103FB247FD1793F7F70FF1F3A2444E
:100E0000DC109104E39AF4FA82479244FD173EC045
:100E1000A9FFEF00102F13054006EF0010419307C4
:100E200020033EC0B707FF009387F70F81443ECAF7
:100E3000EF00302D13057012EF00303F8504A147FD
:100E400063E19766C947858F1306C00481452285F3
:100E50003EC2EFF08FAFDC10139724003E97D246CE
:100E60009247232AD7FA8A07D810BA9723AAD7FA23
:100E7000C167938707F03EDEA286904261479317D1
:100E8000860063CC0758C1679387078006068945AB
:100E9000373501403AC836C63EC432C2EF009034FE
:100EA0001246A247B24642477DD1BE853735014042
:100EB0003AC636C4EF00D03232471246A2467D17FA
:100EC0001377F70F4DFF9106DC10E398D7FA8247AE
:100ED000FD173EC0B1FFEF00D02213054006EF0022
:100EE000D034930720033EC0B7070001938707F073
:100EF00081443ECAEF00F02013057012EF00F0327B
:100F00008504A14763E69754C947858F1306C0043B
:100F1000814522853EC2EFF04FA3DC1013972400D9
:100F20003E97D2469247232AD7FA8A07D810BA9713
:100F300023AAD7FA9307F00F3EDEA28690426147BC
:100F40009317860063C20750C16793870780060620
:100F50008945373501403AC83EC632C436C2EF0033
:100F6000702892462246B24742477DD1BE8537352A
:100F700001403AC6EF00D0263247924622467D17FE
:100F80001377F70F55FF9106DC10E399F6FA8247C5
:100F9000FD173EC0A5F3EF00D01613054006EF0085
:100FA000D028EFF0EFE9EF00D01513054006EF0071
:100FB000D027930720033EC0B704FF00EF00701452
:100FC0001305C012EF007026228613034106A28784
:100FD00093F5140093D6140063820546370780000A
:100FE000B3E4E60084C39107E39467FE832206001E
:100FF000E1469397820063CB0742C16793870780DE
:10100000860289453735014036C83EC616C432C20D
:10101000EF00501D1246A242B247C2467DD1BE85A6
:101020003735014036C6EF00B01BB2461246A24229
:10103000FD1693F6F60F13034106C5FE1106E317DE
:1010400066FA8247FD173EC0B5FBEF00900B130513
:101050004006EF00901D930720033EC0B704FF0039
:10106000EF00300A1305C012EF00301C93F5140096
:1010700022869C1093D6140085C137078000B3E404
:10108000E60084C39386C7FF630EF40093F5140053
:10109000B68793D61400F5F1858084C39386C7FF85
:1010A000E316F4FE9307C4043EC203230600E146A0
:1010B0009317830063C00734C167938707800603D3
:1010C00089453735014032CA36C83EC61AC4EF00DA
:1010D00070112243B247C24652467DD1BE85373594
:1010E000014032C836C6EF00B00FB2462243424636
:1010F000FD1693F6F60FCDFE92471106E397C7FA59
:101100008247FD173EC0A9FFEF00A07F13054006F0
:10111000EF00B011930720033EC08144EF00607ED2
:101120001305C012EF00701001474945B702FF00D8
:10113000CD4541630DA0232A56FA638BB636B3071B
:10114000D5408A07D410930403F0B697090723AA61
:1011500097FA6305B702B307E54013962700930398
:101160004106930617001E96F9D436878A07D410D5
:10117000A180B69723AA97FAE31FB7FCA2869042F4
:1011800061479317860063C7072AC1679387078063
:10119000060689453735014036C83EC632C43AC2D4
:1011A000EF00500412472246B247C2467DD1BE85A9
:1011B0003735014036C6EF00B00212472246B2462C
:1011C0007D171377F70F55FF9106DC10E399D7FAD7
:1011D0008247FD173EC0B9F3EF00A0721305400629
:1011E000EF00B004EFF08FD7EF00A07113054006B9
:1011F000EF00B0039307100381443EC0EF0060701E
:101200001305C012EF007002824713F7170063182E
:101210000726B70601FF2287FD1681E814C3DC10FC
:101220001107B704FF00630AF700A18013C6F4FF9B
:1012300010C3DC101107E312F7FE22860323060019
:10124000E14693178300416763C6071C13070780B5
:1012500006038945373501403AC81AC636C432C23A
:10126000EF0040781246A246324342477DD1BA850C
:1012700037350140EF00C076A24612463243FD16D4
:1012800093F6F60FDDFE1106DC10E399C7FA8247EC
:101290007D57FD173EC0E393E7F6EF008066130528
:1012A0004006EF0080789307100381443EC0EF00B2
:1012B00040651305C012EF004077824713F717000F
:1012C000631B0718370601FF98107D1663920414FC
:1012D00010C39306C7FFB704FF00630AE400A180B0
:1012E00013C7F4FF98C21387C6FFE311D4FE22860A
:1012F00003230600E14693178300416763C7071085
:101300001307078006038945373501403AC81AC6D6
:1013100036C432C2EF00006D1246A2463243424745
:101320007DD1BA8537350140EF00806BA246124669
:101330003243FD1693F6F60FDDFE1106DC10E3993D
:10134000C7FA82477D57FD173EC0E392E7F6552B5B
:1013500013054006EF00606D930720033EC0B704FD
:10136000FF0045231305C012EF00206CA286D010A9
:10137000A28784C3A1809107D1E4B704FF00E39A58
:10138000C7FE03A3060061479317830063C80706DF
:10139000C16793870780060389453735014036C802
:1013A0003EC61AC43AC2EF00E06312472243B24776
:1013B000C2467DD1BE853735014036C61525124758
:1013C0002243B2467D171377F70FD01055FF9106D1
:1013D000E399C6FA8247FD173EC0C1F76FF0CFEF21
:1013E000C167938707FC6FF02FF7C167938707FCEE
:1013F0006FF01F84C167938707FCD1B1C1679387E2
:1014000007FC51BFE397C7F6ADBF130707FCDDBD6F
:10141000BA86F1B5130707FC25BDC167938707FCA2
:10142000B5B4C167938707FC6FF07F8DC167938761
:1014300007FCF9B6C167938707FC99BB858084C315
:101440009107E39767B85DB6C167938707FC01B65C
:10145000C947814465BC98103706FF0099EC10C35A
:101460009306C7FFB704FF00E303E4E8A18084C24A
:101470001387C6FFE30DD4E6FDD0BA86C5BF228729
:10148000B706FF0081E814C3DC101107B704FF00A2
:10149000E305F7DAA18004C3DC101107E314F7FEBB
:1014A00069BBC94781444DB2C94781446FF07F8D04
:1014B000B704FF00E1B19304F00F6FF01F83B7048E
:1014C000FF006FF02FE8B704FF006FF02FF5EFE299
:1014D0003FBD371402401C403707FFF8414593E7F2
:1014E00017001CC05C40F98F5CC01C403707F7FE3A
:1014F0007D17F98F1CC01C403707FCFF7D17F98F43
:101500001CC05C4041777D17F98F5CC0B7079F0016
:101510001CC405211C4C93E707021CCCB7170140E3
:1015200003A70740938607401377F7F023A0E7400F
:1015300003A707401367070823A0E74089479CCA11
:10154000B7F7FF1F03C5477D9307F00F6304F5004E
:101550007D89C526B72702409843C176FD16719B49
:1015600098C398431367170098C3B7170240D8432E
:10157000D8C3D843758FD8C3D843B7060001D8C3A2
:101580009843558F98C3984393166700E3DD06FE92
:10159000D843B7160240719BD8C3D84313672700BE
:1015A000D8C32147DC42B18BE39EE7FE6FE0FFAF7B
:1015B000EFE21FAF371702405C433704002091462B
:1015C000B18B130404016385D700A1466382D7045D
:1015D000B7376E01938707601CC0B7160240DC4224
:1015E0000840918313F7F700B7070020938707009F
:1015F000BA978C23DC4293F5F50F93F7070833571E
:10160000B50081E7EFE01FAD2A8718C06FE0FFA9A2
:101610005C43B777DC02938707C07DBF01A097F1D9
:10162000FF1F9381A11F138181FE1305000A97F507
:10163000FF1F9385259D17F6FF1F1306A69C63FACF
:10164000C5008322050023A0550011059105E3EA9A
:10165000C5FE170500001305654497F5FF1F938528
:10166000659A17F6FF1F1306669B63FAC50083226F
:10167000050023A0550011059105E3EAC5FE17F505
:10168000FF1F1305A599938581806377B5002320FB
:1016900005001105E36DB5FEB722000093820288B4
:1016A000739002308D427390428097F2FFFF9382D5
:1016B000629593E2320073905230EFF05FE197F25F
:1016C000FFFF9382A23D7390123473002030B7273E
:1016D000014093870740631EF500EFE27F9C85453C
:1016E00013050020492C81451305002069246FE073
:1016F000DF9B82805C413707F1FF1307F7EF7D8F97
:10170000DC419441A207D58FD98F5CC11C4537F7C6
:10171000F1FF1307D77FD4457D8F9C49D58F944522
:101720008606D58FD98F1CC55C55370710FF7D17EE
:101730007D8FDC29FD1793F7F70FD207D98F5CD582
:1017400082801C4589C593E717001CC58280F99BE0
:10175000EDBF1C4593E787001CC5828008450D81BD
:10176000058982801C4593E747001CC58280084597
:101770000981058982801C4591C537075000D98FA2
:101780001CC582803707B0FF7D17F98FD5BFA547ED
:1017900063F8B704138765FF931717008322C5000A
:1017A000BA971D433313F3001343F3FF337353000E
:1017B000B397F600B3E767005CC5994763E3C704D6
:1017C0007D16931726003E965859FD47B397C700DC
:1017D00093C7F7FFF98FB395C500DD8D4CD9828093
:1017E0009397150003230501AE971D473317F700A4
:1017F0001347F7FF33776700B397F6005D8F18C97B
:101800006DBFB14763E2C7026516931726003E9687
:101810001859FD47B397C70093C7F7FFF98FB395E2
:10182000C500DD8D0CD982804D1613172600545546
:101830003A96FD47B397C70093C7F7FFF58FB39567
:10184000C500DD8D4CD5828068454205418182808E
:1018500008416D8D3335A00082805C41370700FA66
:101860007D17F98F5CC15C41DD8D4CC18280944550
:1018700093F7060193F2F60081C7DC41B3E2F20070
:1018800083D3050093F7F30FA5C30323050061116C
:1018900022C226C0814713048002930480040547B6
:1018A0003316F70033F7C3006312E602939527005F
:1018B0003D473317B7001347F7FF33736700B395FE
:1018C000B20033E36500639D860050C98507214758
:1018D000E397E7FC124423206500824421018280C3
:1018E000E39696FE10C9DDB78280B737004088C303
:1018F0008280B7370040C8C38280B737004088C7AE
:101900008280AD67373700409387A7AA1CC38280C7
:10191000B567373700409387C7CC1CC337170240E1
:101920005C53898BF5DF8280B707002023ACA700CA
:101930008280371702401C430E0593F777F05D8DC8
:1019400008C38280B7160240DC4241771307F77F55
:10195000F98F5D8DC8C2828099C5371702401C4F30
:101960005D8D08CF8280B7170240984F1345F5FF71
:10197000798D88CF828099C5371702405C475D8D8D
:1019800048C78280B7170240D8471345F5FF798DC5
:10199000C8C782801A218D6793870704B6217D8F7F
:1019A0009E21D58FD621D58FF621D58F9625D58F1F
:1019B000B625D58FD625D58FF625D58FD98F1EA1E3
:1019C0009E291EA982801E2189C593E707041EA1B6
:1019D0008280C207C18393F7F7FBC207C183C5BFEB
:1019E0004EA582800A256D8D3335A0008280EFE2FE
:1019F0002FEBB707002003A50701B7157A009385E1
:101A00000520EFE02FED1375F50FB7070020238FAA
:101A1000A70093175500898F8A073E950E05B707D3
:101A20000020239EA7006FE04FE8EFE26FE737F456
:101A300000E05C40AA85F99B5CC0B707002003D595
:101A4000C701EFE02FE708C8232404001C4093E7F8
:101A500017001CC0B7F700E0D843058B75DF98432B
:101A6000799B98C36FE06FE4F4040000D404000095
:101A7000AE04000090040000E8030000140500001C
:101A8000A608000086080000600800004208000068
:081A900096070000C6080000E3
:101A980001020304050607080102030405060708F6
:081AA800006CDC0200000000EC
:00000001FF
